:10080000120961120938A2B7E433F50C30B76FE46E
:10081000F508F509F50AF50BE5082402FF12094D64
:10082000740D2508F8A607740D2508F8E6FFD39582
:100830000940028F090508E508C3940340DAE50B77
:10084000C394035010740D250BF8E6B50903850B0E
:100850000A050B80E9E50A7008C297C296C2B4D2B5
:10086000B5E50AB40108C297D296C2B4D2B5E50A7A
:1008700064027092C297D296C2B4C2B5808812093F
:1008800091EF24D0B40900400302090D90089A7535
:10089000F003A4C58325F0C583730208B502090DD2
:1008A0000208CD02090D0208C10208D90208E502BA
:1008B00008F10208FDC297C296C2B4C2B57F30806B
:1008C00046C297C296C2B4D2B57F34803AC297D29C
:1008D00096C2B4D2B57F32802EC297D296C2B4C22D
:1008E000B57F358022C297C296D2B4C2B57F36801A
:1008F00016D297C296D2B4C2B57F37800AD297C2B9
:1009000096C2B4C2B57F38120989020806C297C2DE
:0D09100096C2B4C2B57FFF12098902080625
:0D0970008F10120989AF1012094D0209897C
:10094D00EF44C8F5C500000000E5C530E4FB53C514
:04095D00EFAFC62210
:0F09610075985A758920758BEF758DEFD28E22A0
:1009380075923C75913C75903CE4F5C675C5807F11
:0509480002FE02091D82
:080989003099FDC2998F9922FB
:10091D00EF1FAA0670011E4A60107C137D88ED1D25
:0A092D00AA0470011C4A60E880F47F
:01093700229D
:080991003098FDC298AF9922D5
:0300000002097D75
:0C097D00787FE4F6D8FD758110020800B8
:00000001FF
